:06000000020100020118DC
:0300130002016681
:10010000D288D28A75A88575400275410475420966
:100110007543031201B280FBC0D0C0E07C14120111
:10012000B2DCFB20B23905430543E543C3940A40E2
:1001300023F5430542E542C3940A4018F5420541C0
:10014000E541C3940A400DF5410540E540C3940ADA
:100150004002F5407D197E051201B2DEFBDDF7C2DB
:1001600089D0E0D0D032C0D0C0E07C141201B2DC23
:10017000FB20B337E543600415438024754309E54C
:1001800042600415428019754209E5416004154139
:10019000800E754109E540600415408003754009F3
:1001A0007D197E051201B2DEFBDDF7C28BD0E0D0F7
:1001B000D0329001EBE54093F590C2A01201E6D257
:1001C000A0E54193F590C2A11201E6D2A1E54293C8
:1001D000F590C2A21201E6D2A2E54393F590C2A324
:1001E0001201E6D2A3227FFADFFE223F065B4F66B2
:0501F0006D7D077F6F2B
:00000001FF
